:100A0C00E5212401F521740025219522B4000375FC
:100A1C00210074202521D01FD01ED01DF8A61DC08A
:100A2C001EC01F2274202521D019D01AF8861BC095
:0F0A3C001BE521B4000224019401C01AC0192245
:0F0A8D0075202375210075220B758130020A4BED
:100A4B0011C4120A30D0E0B4001A120AA6120A30EE
:100A5B00D0E0B4001274E4519C120A30D0E0B40020
:0D0A6B0009020AC1020AC1020AC1020AC141
:020AC10041C131
:090AA600751800C018120A0C2298
:1008C400C0E074EE740074EE740074EE7400D0E052
:1008D40011EF53A87F751800C018120A0C11FC31CF
:1008E40006310A120A30D0E0B4006475F60075F6D9
:1008F4000175F32075F2002253F3F843F30043F338
:10090400202243F30822C0E0E5F35510B510F9C0E6
:10091400F0740FB5F5028018C395F5E5D05580B590
:10092400800EC3D0F0D0E0751800C018120A0C2253
:10093400751FBA751E11751DE5751C70751B007544
:100944001A10D0F0D0E07518FFC018120A0C2275E6
:100954001F14751E17751D00751CFA751B11751A69
:10096400007518FFC018120A0C751F2E751E7375BA
:0C0974001D27751CEE751BEE751AEE2297
:060AAF00120A8D020AB5D7
:0A0A9C007577007578007579302237
:060AB500120A9C020ABEB9
:030ABB007F002297
:03000300020A7876
:0B0A7800C0E0C0D075D000C006C00771
:0A0A8300E4FFFE0FBF00010E80F932
:030ABE00020ABB6E
:10080000031100000003140000010317000002039D
:100810001A000003031D0000040323000005032940
:10082000000006032F000007033B000008033E0002
:100830000009034100000A034400000B034A0000C2
:100840000C035000000D035300000E035600000F70
:10085000030B000010030E000011035F00001203E1
:10086000650000130308000014036B000015036803
:10087000000016035C000017036200001803590013
:100880000019032000001A032600001B032C00009F
:100890001C033200001D033500001E033800001F3A
:1008A00003470000E003710000D0034D0000F00397
:1008B0007A0000200374000021036E0000220377F9
:0308C000000081B4
:0300000002098072
:0C098000787FE4F6D8FD75817C0209C781
:10098C00020AAFE493A3F8E493A34003F68001F2C8
:10099C0008DFF48029E493A3F85407240CC8C3336C
:1009AC00C4540F4420C8834004F456800146F6DF3B
:1009BC00E4800B0102040810204080900800E47EC3
:1009CC00019360BCA3FF543F30E509541FFEE49330
:1009DC00A360010ECF54C025E060A840B8E493A3F7
:1009EC00FAE493A3F8E493A3C8C582C8CAC583CA22
:1009FC00F0A3C8C582C8CAC583CADFE9DEE780BEDA
:0108C3000034
:00000001FF
