:100A0C00E5212401F521740025219522B4000375FC
:100A1C00210074202521D01FD01ED01DF8A61DC08A
:100A2C001EC01F2274202521D019D01AF8861BC095
:0F0A3C001BE521B4000224019401C01AC0192245
:0F0AB10075202375210075220A758130020A4BCA
:100A4B0011C4120A30D0E0B4001A120AC0120A30D4
:100A5B00D0E0B4001274E4518D120A30D0E0B4002F
:0D0A6B0009020ADB020ADB020ADB020ADBD9
:020ADB0041DBFD
:090AC000751800C018120A0C227E
:1008C400C0E074EE740074EE740074EE7400D0E052
:1008D40011EF53A87F751800C018120A0C11FC31CF
:1008E40006310A120A30D0E0B4006475F60075F6D9
:1008F4000175F32075F2002253F3F843F30043F338
:10090400202243F30822C0E0E5F35510B510F9C0E6
:10091400F0740FB5F5028018C395F5E5D05580B590
:10092400800EC3D0F0D0E0751800C018120A0C2253
:10093400751FBA751E11751DE5751C70751B007544
:100944001A10D0F0D0E07518FFC018120A0C2275E6
:100954001F14751E17751D00751CFA751B11751A69
:10096400007518FFC018120A0C751F2E751E7375BA
:0C0974001D27751CEE751BEE751AEE2297
:060AC900120AB1020ACF7F
:100A8D00AB50AA51A952E4120A9FF577F578757902
:020A9D00302205
:060ACF00120A8D020AD894
:030AD5007F00227D
:03000300020A7876
:0B0A7800C0E0C0D075D000C006C00771
:0A0A8300E4FFFE0FBF00010E80F932
:030AD800020AD53A
:10080000030E0000000311000001031400000203A6
:1008100017000003031A000004032000000503264C
:10082000000006032C0000070347000008036500D2
:100830000009035300000A034400000B035F00009B
:100840000C036800000D035C00000E036B00000F3A
:100850000308000010030B000011035000001203F6
:1008600059000013034D0000140362000015034AF1
:100870000000160356000017031D00001803230094
:100880000019032900001A032F00001B0332000087
:100890001C033500001D033800001E033B00001F31
:1008A000033E0000E003710000D003410000F003AC
:1008B0007A0000200374000021036E0000220377F9
:0308C000000081B4
:0300000002098072
:0C098000787FE4F6D8FD75817C0209C781
:100A9F00BB010689828A83F0225002F722BBFE0136
:020AAF00F32230
:10098C00020AC9E493A3F8E493A34003F68001F2AE
:10099C0008DFF48029E493A3F85407240CC8C3336C
:1009AC00C4540F4420C8834004F456800146F6DF3B
:1009BC00E4800B0102040810204080900800E47EC3
:1009CC00019360BCA3FF543F30E509541FFEE49330
:1009DC00A360010ECF54C025E060A840B8E493A3F7
:1009EC00FAE493A3F8E493A3C8C582C8CAC583CA22
:1009FC00F0A3C8C582C8CAC583CADFE9DEE780BEDA
:0108C3000034
:00000001FF
