:020948001F226C
:0C0933007EFFE4FF1209488F087FFF22BE
:02094A000F227A
:03000000020924CE
:1008BC00E52124019522B400037521007420252123
:1008CC00D01FD01ED01DF8A61DC01EC01F22742024
:1008DC002521D019D01AF8861BC01BE521B40002C3
:0908EC0024019401C01AC0192274
:0F0924007520237521007522207581300208F59A
:1008F5001208001208DAD0E0B4001B12093F1208F2
:10090500DAD0E0B4001374E41200001208DAD0E083
:0F091500B4000902094C02094C02094C02094CBA
:02094C00214C3C
:09093F00751800C0181208BC2252
:10080000C0E074EE740074EE740074EE7400D0E016
:10081000112B53A87F751800C0181208BC1138118D
:100820004211461208DAD0E0B4006475F60075F69D
:100830000175F32075F2002253F3F843F30043F3FC
:10084000202243F30822C0E0E5F35510B510F9C0AB
:10085000F0740FB5F5028018C395F5E5D05580B555
:10086000800EC3D0F0D0E0751800C0181208BC226A
:10087000751FBA751E11751DE5751C70751B007509
:100880001A10D0F0D0E07518FFC0181208BC2275FD
:100890001F14751E17751D00751CFA751B11751A2E
:1008A000007518FFC0181208BC751F2E751E7375D1
:0C08B0001D27751CEE751BEE751AEE225C
:00000001FF
