:20010000C0A875A800850882850983F0A3E5F0F0A3E50AF0A3E50BF0A38582088583098595
:20012000820A85830BD0A822D0E0D0E0C0A875A800E50824FCF508E50934FFF509D0028521
:200140000882850983E0C0E0A3E0C0E0A3E0F50AA3E0F50BA38502A822C0A875A800C0D053
:2001600075D000C082C083C0E0C0F0C000C001850882850983E58124F5F8E6F0A308E6F0F6
:20018000A308E50AF0A3E50BF0A3080808E6F0A308E6F0A308E6F0A308E6F0A308E6F0A31A
:2001A00008E6F0A308E6F0A37900E7F0A309B90DF985820885830985820A85830BE58124B4
:2001C000F9F581D000D0F0D0E0D001D001C0E0C0F08500A82275D00085A80075A800E508B3
:2001E00024E8F508E50934FFF509850882850983D0E0D0E0E0C0E0A3E0C0E0A3C000E0F57C
:200200000AA3E0F50BA3E0C0E0A3E0C0E0A3E0C0E0A3E0C0E0A3E0C0E0A3E0C0E0A3E0C03C
:20022000E0A37900E0F7A309B90DF9D001D000D0F0D0E0D083D082D0D0D0A832D083D082DB
:20024000C082C083A3A3A3E5F070012215F0E493A365016006A3A3A3A380ECE493A3650066
:200260006005A3A3A380E0D0E0D0E0E473E501750100450070047500012275000022E501EF
:200280007501006503700BE50065027005750001D322750000C32212027EE500B2E0F50081
:2002A000B322E501650330E737750100E50320E705750001D322750000C3221202A20202E4
:2002C0009AE501650330E736750100E50320E705750001D322750000C3221202C102029A47
:2002E000C3E5009502E50195037501005005750001D322750000C3221202E002029AC3E577
:20030000029500E50395017501004005750001D322750000C3221202FE02029AE50025028C
:20032000F500E5013503F501222500F500E50135F0F50122C3E5009502F500E5019503F5AE
:200340000122E5005502F500E5015503F50122E5004502F500E5014503F5012285028285FE
:200360000383E02401F0A3E03400F0222500F500E5013400F50122F5F0E500C395F0F500E6
:20038000E5019400F50122E502540F6013F506C3E50033F500E50133F5011506E50670EFCF
:2003A00022E502540F6013F506C3E50113F501E50013F5001506E50670EF22E501650330BF
:2003C000E7301203CC1203F21203CC22E501F4C0E0E500F42401F500D0E03400F50122E5CD
:2003E00003F4C0E0E502F42401F502D0E03400F50322E5018502F0A4C0E0E5008503F0A4CF
:20040000C0E0E5008502F0A4F500D0E025F0D0F025F0F50122750701E501450320E70412CD
:2004200004A722E501550320E73BE50130E71B1203CC1204A71203CCE50130E727E50025AA
:2004400002F500E5013503F501221203DF1204A71203CCE50130E70CE5002502F500E501ED
:200460003503F501221203CC1203DF1204A722750700E501450320E7041204A722E50155A9
:200480000320E719E50130E70A1203CC1204A71203CC221203DF1204A71203CC221203CCFC
:2004A0001203DF1204A722E5024503700122E50345017010E5008502F084F500E5076003D5
:2004C00085F000227E01E503C320E70D0EE50233F502E50333F50380F0750400750500C0F2
:2004E00000C001C3E5009502F500E5019503F501B3501DD0E0D0E0E50433F504E50533F5EC
:2005000005C3E50313F503E50213F502DED1801BD001D000E50433F504E50533F505C3E570
:200520000313F503E50213F502DEB4E507700685040085050122C0A875A800850882850970
:2005400083E500F0A3E501F0A3858208858309D0A822C0A875A800850882850983E502F0F1
:20056000A3E503F0A3858208858309D0A822C0A875A800E50824FEF508F582E50934FFF585
:2005800009F583E0F502A3E0F503D0A822C0A875A8002508F508E50935F0F509D0A822850F
:2005A0000A82850B83800A250AF582E50B35F0F583E0F500A3E0F50122250AF582E50B35A4
:2005C000F0F583E0F502A3E0F50322850282850383800A2502F582E50335F0F583E0F500A9
:2005E000A3E0F50122850282850383E500F0A3E501F022E50CF50075010022C0A875A800D9
:20060000850882850983C5F0F0A3E5F0F0A3858208858309D0A822C500C502C500C501C574
:2006200003C50122850A82850B83800A250AF582E50B35F0F583E0F5F0A3E00205FB250A75
:20064000F500E50B35F0F50122250AF502E50B35F0F50322C0A875A8002508F508E5093551
:20066000F0F509D0A8020128E0F500A3E0F50122E0F502A3E0F50322850282850383E0F51C
:2006800002A3E0F50322850282850383800A2502F582E50335F0F583E0F50075010030E798
:2006A00002150122850282850383800A2502F582E50335F0F583E0F50075010022850A82C1
:2006C000850B83800A250AF582E50B35F0F583E0F50075010030E702150122850A82850B0D
:2006E00083800A250AF582E50B35F0F583E0F50075010022850A82850B83800A250AF582F9
:20070000E50B35F0F583E0F50275030030E702150322850A82850B83800A250AF582E50B66
:2007200035F0F583E0F50275030022850A82850B83800A250AF582E50B35F0F583E500F0F5
:2007400022850A82850B83800A250AF582E50B35F0F583E500F0A3E501F022E5004501609B
:2007600002D322C322E0F5F0A3E00205FBC3E50033F500E50133F50122E5002502F502E56A
:20078000013503F50322850282850383800A2502F582E50335F0F583E0F5F0A3E00205FBFB
:0907A000E500F0A3E501F02222BE
:0300000002088B68
:20080A00112553A87F751800C0181208C6113B114511491208EFD0E0B4004B75F60075F64F
:20082A000175F32075F20085F61785F31685F2152253F3F843F30043F3202243F30822C0E4
:20084A00E0E5F35510B510F9C0F074FF740074FFD0F0D0E0751800C0181208C6227518FF46
:18086A00C0181208C6227518FFC0181208C6227518E4C0181208C622EB
:2007A900D0F0D0E012010074E11208791208EFD0E074FA75F0FF1206C5120536750C01127C
:2007C90007E674FE75F0FF12058D74FA75F0FF12073374FA75F0FF1206C5120128D0F0D011
:2007E900E012010074FA75F0FF120649850282850383E02401F074FA75F0FF1206C51201FF
:0108090028C6
:20088200751800C0181208C622752023752100752220E520252204F58102089E12080A1246
:2008A20008EFD0E0B4001B1208821208EFD0E0B4001074E41207A91208EFD0E0B40003021B
:2008C20008C401C485211FE51F240185221E951EB40003752100751F20E51F2521F51FD0F0
:2008E2001FD01ED01DF8A61DC01EC01F22751F2085211EE51F2521D019D01AF8861BC01B59
:12090200E521B400042401F5219401F521C01AC019226A
:00000001FF
